{
  "_format": "hh-sol-artifact-1",
  "contractName": "MLT",
  "sourceName": "contracts/MLT.sol",
  "abi": [
    {
      "inputs": [],
      "stateMutability": "nonpayable",
      "type": "constructor"
    },
    {
      "anonymous": false,
      "inputs": [
        {
          "indexed": true,
          "internalType": "address",
          "name": "owner",
          "type": "address"
        },
        {
          "indexed": true,
          "internalType": "address",
          "name": "spender",
          "type": "address"
        },
        {
          "indexed": false,
          "internalType": "uint256",
          "name": "value",
          "type": "uint256"
        }
      ],
      "name": "Approval",
      "type": "event"
    },
    {
      "anonymous": false,
      "inputs": [
        {
          "indexed": true,
          "internalType": "address",
          "name": "previousOwner",
          "type": "address"
        },
        {
          "indexed": true,
          "internalType": "address",
          "name": "newOwner",
          "type": "address"
        }
      ],
      "name": "OwnershipTransferred",
      "type": "event"
    },
    {
      "anonymous": false,
      "inputs": [
        {
          "indexed": false,
          "internalType": "address",
          "name": "account",
          "type": "address"
        }
      ],
      "name": "Paused",
      "type": "event"
    },
    {
      "anonymous": false,
      "inputs": [
        {
          "indexed": true,
          "internalType": "address",
          "name": "from",
          "type": "address"
        },
        {
          "indexed": true,
          "internalType": "address",
          "name": "to",
          "type": "address"
        },
        {
          "indexed": false,
          "internalType": "uint256",
          "name": "value",
          "type": "uint256"
        }
      ],
      "name": "Transfer",
      "type": "event"
    },
    {
      "anonymous": false,
      "inputs": [
        {
          "indexed": false,
          "internalType": "address",
          "name": "account",
          "type": "address"
        }
      ],
      "name": "Unpaused",
      "type": "event"
    },
    {
      "inputs": [
        {
          "internalType": "address",
          "name": "owner",
          "type": "address"
        },
        {
          "internalType": "address",
          "name": "spender",
          "type": "address"
        }
      ],
      "name": "allowance",
      "outputs": [
        {
          "internalType": "uint256",
          "name": "",
          "type": "uint256"
        }
      ],
      "stateMutability": "view",
      "type": "function"
    },
    {
      "inputs": [
        {
          "internalType": "address",
          "name": "spender",
          "type": "address"
        },
        {
          "internalType": "uint256",
          "name": "amount",
          "type": "uint256"
        }
      ],
      "name": "approve",
      "outputs": [
        {
          "internalType": "bool",
          "name": "",
          "type": "bool"
        }
      ],
      "stateMutability": "nonpayable",
      "type": "function"
    },
    {
      "inputs": [
        {
          "internalType": "address",
          "name": "account",
          "type": "address"
        }
      ],
      "name": "balanceOf",
      "outputs": [
        {
          "internalType": "uint256",
          "name": "",
          "type": "uint256"
        }
      ],
      "stateMutability": "view",
      "type": "function"
    },
    {
      "inputs": [
        {
          "internalType": "uint256",
          "name": "amount",
          "type": "uint256"
        }
      ],
      "name": "burn",
      "outputs": [],
      "stateMutability": "nonpayable",
      "type": "function"
    },
    {
      "inputs": [
        {
          "internalType": "address",
          "name": "account",
          "type": "address"
        },
        {
          "internalType": "uint256",
          "name": "amount",
          "type": "uint256"
        }
      ],
      "name": "burnFrom",
      "outputs": [],
      "stateMutability": "nonpayable",
      "type": "function"
    },
    {
      "inputs": [],
      "name": "decimals",
      "outputs": [
        {
          "internalType": "uint8",
          "name": "",
          "type": "uint8"
        }
      ],
      "stateMutability": "view",
      "type": "function"
    },
    {
      "inputs": [
        {
          "internalType": "address",
          "name": "spender",
          "type": "address"
        },
        {
          "internalType": "uint256",
          "name": "subtractedValue",
          "type": "uint256"
        }
      ],
      "name": "decreaseAllowance",
      "outputs": [
        {
          "internalType": "bool",
          "name": "",
          "type": "bool"
        }
      ],
      "stateMutability": "nonpayable",
      "type": "function"
    },
    {
      "inputs": [
        {
          "internalType": "address",
          "name": "spender",
          "type": "address"
        },
        {
          "internalType": "uint256",
          "name": "addedValue",
          "type": "uint256"
        }
      ],
      "name": "increaseAllowance",
      "outputs": [
        {
          "internalType": "bool",
          "name": "",
          "type": "bool"
        }
      ],
      "stateMutability": "nonpayable",
      "type": "function"
    },
    {
      "inputs": [
        {
          "internalType": "address",
          "name": "_to",
          "type": "address"
        },
        {
          "internalType": "uint256",
          "name": "_amount",
          "type": "uint256"
        }
      ],
      "name": "mint",
      "outputs": [],
      "stateMutability": "nonpayable",
      "type": "function"
    },
    {
      "inputs": [],
      "name": "name",
      "outputs": [
        {
          "internalType": "string",
          "name": "",
          "type": "string"
        }
      ],
      "stateMutability": "view",
      "type": "function"
    },
    {
      "inputs": [],
      "name": "owner",
      "outputs": [
        {
          "internalType": "address",
          "name": "",
          "type": "address"
        }
      ],
      "stateMutability": "view",
      "type": "function"
    },
    {
      "inputs": [],
      "name": "pause",
      "outputs": [],
      "stateMutability": "nonpayable",
      "type": "function"
    },
    {
      "inputs": [],
      "name": "paused",
      "outputs": [
        {
          "internalType": "bool",
          "name": "",
          "type": "bool"
        }
      ],
      "stateMutability": "view",
      "type": "function"
    },
    {
      "inputs": [],
      "name": "renounceOwnership",
      "outputs": [],
      "stateMutability": "nonpayable",
      "type": "function"
    },
    {
      "inputs": [],
      "name": "symbol",
      "outputs": [
        {
          "internalType": "string",
          "name": "",
          "type": "string"
        }
      ],
      "stateMutability": "view",
      "type": "function"
    },
    {
      "inputs": [],
      "name": "totalSupply",
      "outputs": [
        {
          "internalType": "uint256",
          "name": "",
          "type": "uint256"
        }
      ],
      "stateMutability": "view",
      "type": "function"
    },
    {
      "inputs": [
        {
          "internalType": "address",
          "name": "to",
          "type": "address"
        },
        {
          "internalType": "uint256",
          "name": "amount",
          "type": "uint256"
        }
      ],
      "name": "transfer",
      "outputs": [
        {
          "internalType": "bool",
          "name": "",
          "type": "bool"
        }
      ],
      "stateMutability": "nonpayable",
      "type": "function"
    },
    {
      "inputs": [
        {
          "internalType": "address",
          "name": "from",
          "type": "address"
        },
        {
          "internalType": "address",
          "name": "to",
          "type": "address"
        },
        {
          "internalType": "uint256",
          "name": "amount",
          "type": "uint256"
        }
      ],
      "name": "transferFrom",
      "outputs": [
        {
          "internalType": "bool",
          "name": "",
          "type": "bool"
        }
      ],
      "stateMutability": "nonpayable",
      "type": "function"
    },
    {
      "inputs": [
        {
          "internalType": "address",
          "name": "newOwner",
          "type": "address"
        }
      ],
      "name": "transferOwnership",
      "outputs": [],
      "stateMutability": "nonpayable",
      "type": "function"
    },
    {
      "inputs": [],
      "name": "unpause",
      "outputs": [],
      "stateMutability": "nonpayable",
      "type": "function"
    }
  ],
  "bytecode": "0x60806040523480156200001157600080fd5b506040518060400160405280600e81526020017f4d6f6269616e636520546f6b656e0000000000000000000000000000000000008152506040518060400160405280600381526020017f4d4c540000000000000000000000000000000000000000000000000000000000815250816003908051906020019062000096929190620001fc565b508060049080519060200190620000af929190620001fc565b5050506000600560006101000a81548160ff021916908315150217905550620000ed620000e16200010460201b60201c565b6200010c60201b60201c565b620000fd620001d260201b60201c565b5062000311565b600033905090565b6000600560019054906101000a900473ffffffffffffffffffffffffffffffffffffffff16905081600560016101000a81548173ffffffffffffffffffffffffffffffffffffffff021916908373ffffffffffffffffffffffffffffffffffffffff1602179055508173ffffffffffffffffffffffffffffffffffffffff168173ffffffffffffffffffffffffffffffffffffffff167f8be0079c531659141344cd1fd0a4f28419497f9722a3daafe3b4186f6b6457e060405160405180910390a35050565b6000600560019054906101000a900473ffffffffffffffffffffffffffffffffffffffff16905090565b8280546200020a90620002ac565b90600052602060002090601f0160209004810192826200022e57600085556200027a565b82601f106200024957805160ff19168380011785556200027a565b828001600101855582156200027a579182015b82811115620002795782518255916020019190600101906200025c565b5b5090506200028991906200028d565b5090565b5b80821115620002a85760008160009055506001016200028e565b5090565b60006002820490506001821680620002c557607f821691505b60208210811415620002dc57620002db620002e2565b5b50919050565b7f4e487b7100000000000000000000000000000000000000000000000000000000600052602260045260246000fd5b61219880620003216000396000f3fe608060405234801561001057600080fd5b506004361061012c5760003560e01c806370a08231116100ad57806395d89b411161007157806395d89b41146102f9578063a457c2d714610317578063a9059cbb14610347578063dd62ed3e14610377578063f2fde38b146103a75761012c565b806370a082311461027b578063715018a6146102ab57806379cc6790146102b55780638456cb59146102d15780638da5cb5b146102db5761012c565b806339509351116100f457806339509351146101eb5780633f4ba83a1461021b57806340c10f191461022557806342966c68146102415780635c975abb1461025d5761012c565b806306fdde0314610131578063095ea7b31461014f57806318160ddd1461017f57806323b872dd1461019d578063313ce567146101cd575b600080fd5b6101396103c3565b60405161014691906119b9565b60405180910390f35b610169600480360381019061016491906116bf565b610455565b604051610176919061199e565b60405180910390f35b610187610478565b6040516101949190611b9b565b60405180910390f35b6101b760048036038101906101b29190611670565b610482565b6040516101c4919061199e565b60405180910390f35b6101d56104b1565b6040516101e29190611bb6565b60405180910390f35b610205600480360381019061020091906116bf565b6104ba565b604051610212919061199e565b60405180910390f35b610223610564565b005b61023f600480360381019061023a91906116bf565b6105ea565b005b61025b600480360381019061025691906116fb565b610674565b005b610265610688565b604051610272919061199e565b60405180910390f35b6102956004803603810190610290919061160b565b61069f565b6040516102a29190611b9b565b60405180910390f35b6102b36106e7565b005b6102cf60048036038101906102ca91906116bf565b61076f565b005b6102d961078f565b005b6102e3610815565b6040516102f09190611983565b60405180910390f35b61030161083f565b60405161030e91906119b9565b60405180910390f35b610331600480360381019061032c91906116bf565b6108d1565b60405161033e919061199e565b60405180910390f35b610361600480360381019061035c91906116bf565b6109bb565b60405161036e919061199e565b60405180910390f35b610391600480360381019061038c9190611634565b6109de565b60405161039e9190611b9b565b60405180910390f35b6103c160048036038101906103bc919061160b565b610a65565b005b6060600380546103d290611cff565b80601f01602080910402602001604051908101604052809291908181526020018280546103fe90611cff565b801561044b5780601f106104205761010080835404028352916020019161044b565b820191906000526020600020905b81548152906001019060200180831161042e57829003601f168201915b5050505050905090565b600080610460610b5d565b905061046d818585610b65565b600191505092915050565b6000600254905090565b60008061048d610b5d565b905061049a858285610d30565b6104a5858585610dbc565b60019150509392505050565b60006012905090565b6000806104c5610b5d565b9050610559818585600160008673ffffffffffffffffffffffffffffffffffffffff1673ffffffffffffffffffffffffffffffffffffffff16815260200190815260200160002060008973ffffffffffffffffffffffffffffffffffffffff1673ffffffffffffffffffffffffffffffffffffffff168152602001908152602001600020546105549190611bed565b610b65565b600191505092915050565b61056c610b5d565b73ffffffffffffffffffffffffffffffffffffffff1661058a610815565b73ffffffffffffffffffffffffffffffffffffffff16146105e0576040517f08c379a00000000000000000000000000000000000000000000000000000000081526004016105d790611adb565b60405180910390fd5b6105e861103d565b565b6105f2610b5d565b73ffffffffffffffffffffffffffffffffffffffff16610610610815565b73ffffffffffffffffffffffffffffffffffffffff1614610666576040517f08c379a000000000000000000000000000000000000000000000000000000000815260040161065d90611adb565b60405180910390fd5b61067082826110df565b5050565b61068561067f610b5d565b8261123f565b50565b6000600560009054906101000a900460ff16905090565b60008060008373ffffffffffffffffffffffffffffffffffffffff1673ffffffffffffffffffffffffffffffffffffffff168152602001908152602001600020549050919050565b6106ef610b5d565b73ffffffffffffffffffffffffffffffffffffffff1661070d610815565b73ffffffffffffffffffffffffffffffffffffffff1614610763576040517f08c379a000000000000000000000000000000000000000000000000000000000815260040161075a90611adb565b60405180910390fd5b61076d6000611416565b565b6107818261077b610b5d565b83610d30565b61078b828261123f565b5050565b610797610b5d565b73ffffffffffffffffffffffffffffffffffffffff166107b5610815565b73ffffffffffffffffffffffffffffffffffffffff161461080b576040517f08c379a000000000000000000000000000000000000000000000000000000000815260040161080290611adb565b60405180910390fd5b6108136114dc565b565b6000600560019054906101000a900473ffffffffffffffffffffffffffffffffffffffff16905090565b60606004805461084e90611cff565b80601f016020809104026020016040519081016040528092919081815260200182805461087a90611cff565b80156108c75780601f1061089c576101008083540402835291602001916108c7565b820191906000526020600020905b8154815290600101906020018083116108aa57829003601f168201915b5050505050905090565b6000806108dc610b5d565b90506000600160008373ffffffffffffffffffffffffffffffffffffffff1673ffffffffffffffffffffffffffffffffffffffff16815260200190815260200160002060008673ffffffffffffffffffffffffffffffffffffffff1673ffffffffffffffffffffffffffffffffffffffff168152602001908152602001600020549050838110156109a2576040517f08c379a000000000000000000000000000000000000000000000000000000000815260040161099990611b5b565b60405180910390fd5b6109af8286868403610b65565b60019250505092915050565b6000806109c6610b5d565b90506109d3818585610dbc565b600191505092915050565b6000600160008473ffffffffffffffffffffffffffffffffffffffff1673ffffffffffffffffffffffffffffffffffffffff16815260200190815260200160002060008373ffffffffffffffffffffffffffffffffffffffff1673ffffffffffffffffffffffffffffffffffffffff16815260200190815260200160002054905092915050565b610a6d610b5d565b73ffffffffffffffffffffffffffffffffffffffff16610a8b610815565b73ffffffffffffffffffffffffffffffffffffffff1614610ae1576040517f08c379a0000000000000000000000000000000000000000000000000000000008152600401610ad890611adb565b60405180910390fd5b600073ffffffffffffffffffffffffffffffffffffffff168173ffffffffffffffffffffffffffffffffffffffff161415610b51576040517f08c379a0000000000000000000000000000000000000000000000000000000008152600401610b4890611a3b565b60405180910390fd5b610b5a81611416565b50565b600033905090565b600073ffffffffffffffffffffffffffffffffffffffff168373ffffffffffffffffffffffffffffffffffffffff161415610bd5576040517f08c379a0000000000000000000000000000000000000000000000000000000008152600401610bcc90611b3b565b60405180910390fd5b600073ffffffffffffffffffffffffffffffffffffffff168273ffffffffffffffffffffffffffffffffffffffff161415610c45576040517f08c379a0000000000000000000000000000000000000000000000000000000008152600401610c3c90611a5b565b60405180910390fd5b80600160008573ffffffffffffffffffffffffffffffffffffffff1673ffffffffffffffffffffffffffffffffffffffff16815260200190815260200160002060008473ffffffffffffffffffffffffffffffffffffffff1673ffffffffffffffffffffffffffffffffffffffff168152602001908152602001600020819055508173ffffffffffffffffffffffffffffffffffffffff168373ffffffffffffffffffffffffffffffffffffffff167f8c5be1e5ebec7d5bd14f71427d1e84f3dd0314c0f7b2291e5b200ac8c7c3b92583604051610d239190611b9b565b60405180910390a3505050565b6000610d3c84846109de565b90507fffffffffffffffffffffffffffffffffffffffffffffffffffffffffffffffff8114610db65781811015610da8576040517f08c379a0000000000000000000000000000000000000000000000000000000008152600401610d9f90611a7b565b60405180910390fd5b610db58484848403610b65565b5b50505050565b600073ffffffffffffffffffffffffffffffffffffffff168373ffffffffffffffffffffffffffffffffffffffff161415610e2c576040517f08c379a0000000000000000000000000000000000000000000000000000000008152600401610e2390611b1b565b60405180910390fd5b600073ffffffffffffffffffffffffffffffffffffffff168273ffffffffffffffffffffffffffffffffffffffff161415610e9c576040517f08c379a0000000000000000000000000000000000000000000000000000000008152600401610e93906119db565b60405180910390fd5b610ea783838361157f565b60008060008573ffffffffffffffffffffffffffffffffffffffff1673ffffffffffffffffffffffffffffffffffffffff16815260200190815260200160002054905081811015610f2d576040517f08c379a0000000000000000000000000000000000000000000000000000000008152600401610f2490611a9b565b60405180910390fd5b8181036000808673ffffffffffffffffffffffffffffffffffffffff1673ffffffffffffffffffffffffffffffffffffffff16815260200190815260200160002081905550816000808573ffffffffffffffffffffffffffffffffffffffff1673ffffffffffffffffffffffffffffffffffffffff1681526020019081526020016000206000828254610fc09190611bed565b925050819055508273ffffffffffffffffffffffffffffffffffffffff168473ffffffffffffffffffffffffffffffffffffffff167fddf252ad1be2c89b69c2b068fc378daa952ba7f163c4a11628f55a4df523b3ef846040516110249190611b9b565b60405180910390a36110378484846115d7565b50505050565b611045610688565b611084576040517f08c379a000000000000000000000000000000000000000000000000000000000815260040161107b906119fb565b60405180910390fd5b6000600560006101000a81548160ff0219169083151502179055507f5db9ee0a495bf2e6ff9c91a7834c1ba4fdd244a5e8aa4e537bd38aeae4b073aa6110c8610b5d565b6040516110d59190611983565b60405180910390a1565b600073ffffffffffffffffffffffffffffffffffffffff168273ffffffffffffffffffffffffffffffffffffffff16141561114f576040517f08c379a000000000000000000000000000000000000000000000000000000000815260040161114690611b7b565b60405180910390fd5b61115b6000838361157f565b806002600082825461116d9190611bed565b92505081905550806000808473ffffffffffffffffffffffffffffffffffffffff1673ffffffffffffffffffffffffffffffffffffffff16815260200190815260200160002060008282546111c29190611bed565b925050819055508173ffffffffffffffffffffffffffffffffffffffff16600073ffffffffffffffffffffffffffffffffffffffff167fddf252ad1be2c89b69c2b068fc378daa952ba7f163c4a11628f55a4df523b3ef836040516112279190611b9b565b60405180910390a361123b600083836115d7565b5050565b600073ffffffffffffffffffffffffffffffffffffffff168273ffffffffffffffffffffffffffffffffffffffff1614156112af576040517f08c379a00000000000000000000000000000000000000000000000000000000081526004016112a690611afb565b60405180910390fd5b6112bb8260008361157f565b60008060008473ffffffffffffffffffffffffffffffffffffffff1673ffffffffffffffffffffffffffffffffffffffff16815260200190815260200160002054905081811015611341576040517f08c379a000000000000000000000000000000000000000000000000000000000815260040161133890611a1b565b60405180910390fd5b8181036000808573ffffffffffffffffffffffffffffffffffffffff1673ffffffffffffffffffffffffffffffffffffffff1681526020019081526020016000208190555081600260008282546113989190611c43565b92505081905550600073ffffffffffffffffffffffffffffffffffffffff168373ffffffffffffffffffffffffffffffffffffffff167fddf252ad1be2c89b69c2b068fc378daa952ba7f163c4a11628f55a4df523b3ef846040516113fd9190611b9b565b60405180910390a3611411836000846115d7565b505050565b6000600560019054906101000a900473ffffffffffffffffffffffffffffffffffffffff16905081600560016101000a81548173ffffffffffffffffffffffffffffffffffffffff021916908373ffffffffffffffffffffffffffffffffffffffff1602179055508173ffffffffffffffffffffffffffffffffffffffff168173ffffffffffffffffffffffffffffffffffffffff167f8be0079c531659141344cd1fd0a4f28419497f9722a3daafe3b4186f6b6457e060405160405180910390a35050565b6114e4610688565b15611524576040517f08c379a000000000000000000000000000000000000000000000000000000000815260040161151b90611abb565b60405180910390fd5b6001600560006101000a81548160ff0219169083151502179055507f62e78cea01bee320cd4e420270b5ea74000d11b0c9f74754ebdbfc544b05a258611568610b5d565b6040516115759190611983565b60405180910390a1565b611587610688565b156115c7576040517f08c379a00000000000000000000000000000000000000000000000000000000081526004016115be90611abb565b60405180910390fd5b6115d28383836115dc565b505050565b505050565b505050565b6000813590506115f081612134565b92915050565b6000813590506116058161214b565b92915050565b60006020828403121561161d57600080fd5b600061162b848285016115e1565b91505092915050565b6000806040838503121561164757600080fd5b6000611655858286016115e1565b9250506020611666858286016115e1565b9150509250929050565b60008060006060848603121561168557600080fd5b6000611693868287016115e1565b93505060206116a4868287016115e1565b92505060406116b5868287016115f6565b9150509250925092565b600080604083850312156116d257600080fd5b60006116e0858286016115e1565b92505060206116f1858286016115f6565b9150509250929050565b60006020828403121561170d57600080fd5b600061171b848285016115f6565b91505092915050565b61172d81611c77565b82525050565b61173c81611c89565b82525050565b600061174d82611bd1565b6117578185611bdc565b9350611767818560208601611ccc565b61177081611d8f565b840191505092915050565b6000611788602383611bdc565b915061179382611da0565b604082019050919050565b60006117ab601483611bdc565b91506117b682611def565b602082019050919050565b60006117ce602283611bdc565b91506117d982611e18565b604082019050919050565b60006117f1602683611bdc565b91506117fc82611e67565b604082019050919050565b6000611814602283611bdc565b915061181f82611eb6565b604082019050919050565b6000611837601d83611bdc565b915061184282611f05565b602082019050919050565b600061185a602683611bdc565b915061186582611f2e565b604082019050919050565b600061187d601083611bdc565b915061188882611f7d565b602082019050919050565b60006118a0602083611bdc565b91506118ab82611fa6565b602082019050919050565b60006118c3602183611bdc565b91506118ce82611fcf565b604082019050919050565b60006118e6602583611bdc565b91506118f18261201e565b604082019050919050565b6000611909602483611bdc565b91506119148261206d565b604082019050919050565b600061192c602583611bdc565b9150611937826120bc565b604082019050919050565b600061194f601f83611bdc565b915061195a8261210b565b602082019050919050565b61196e81611cb5565b82525050565b61197d81611cbf565b82525050565b60006020820190506119986000830184611724565b92915050565b60006020820190506119b36000830184611733565b92915050565b600060208201905081810360008301526119d38184611742565b905092915050565b600060208201905081810360008301526119f48161177b565b9050919050565b60006020820190508181036000830152611a148161179e565b9050919050565b60006020820190508181036000830152611a34816117c1565b9050919050565b60006020820190508181036000830152611a54816117e4565b9050919050565b60006020820190508181036000830152611a7481611807565b9050919050565b60006020820190508181036000830152611a948161182a565b9050919050565b60006020820190508181036000830152611ab48161184d565b9050919050565b60006020820190508181036000830152611ad481611870565b9050919050565b60006020820190508181036000830152611af481611893565b9050919050565b60006020820190508181036000830152611b14816118b6565b9050919050565b60006020820190508181036000830152611b34816118d9565b9050919050565b60006020820190508181036000830152611b54816118fc565b9050919050565b60006020820190508181036000830152611b748161191f565b9050919050565b60006020820190508181036000830152611b9481611942565b9050919050565b6000602082019050611bb06000830184611965565b92915050565b6000602082019050611bcb6000830184611974565b92915050565b600081519050919050565b600082825260208201905092915050565b6000611bf882611cb5565b9150611c0383611cb5565b9250827fffffffffffffffffffffffffffffffffffffffffffffffffffffffffffffffff03821115611c3857611c37611d31565b5b828201905092915050565b6000611c4e82611cb5565b9150611c5983611cb5565b925082821015611c6c57611c6b611d31565b5b828203905092915050565b6000611c8282611c95565b9050919050565b60008115159050919050565b600073ffffffffffffffffffffffffffffffffffffffff82169050919050565b6000819050919050565b600060ff82169050919050565b60005b83811015611cea578082015181840152602081019050611ccf565b83811115611cf9576000848401525b50505050565b60006002820490506001821680611d1757607f821691505b60208210811415611d2b57611d2a611d60565b5b50919050565b7f4e487b7100000000000000000000000000000000000000000000000000000000600052601160045260246000fd5b7f4e487b7100000000000000000000000000000000000000000000000000000000600052602260045260246000fd5b6000601f19601f8301169050919050565b7f45524332303a207472616e7366657220746f20746865207a65726f206164647260008201527f6573730000000000000000000000000000000000000000000000000000000000602082015250565b7f5061757361626c653a206e6f7420706175736564000000000000000000000000600082015250565b7f45524332303a206275726e20616d6f756e7420657863656564732062616c616e60008201527f6365000000000000000000000000000000000000000000000000000000000000602082015250565b7f4f776e61626c653a206e6577206f776e657220697320746865207a65726f206160008201527f6464726573730000000000000000000000000000000000000000000000000000602082015250565b7f45524332303a20617070726f766520746f20746865207a65726f20616464726560008201527f7373000000000000000000000000000000000000000000000000000000000000602082015250565b7f45524332303a20696e73756666696369656e7420616c6c6f77616e6365000000600082015250565b7f45524332303a207472616e7366657220616d6f756e742065786365656473206260008201527f616c616e63650000000000000000000000000000000000000000000000000000602082015250565b7f5061757361626c653a2070617573656400000000000000000000000000000000600082015250565b7f4f776e61626c653a2063616c6c6572206973206e6f7420746865206f776e6572600082015250565b7f45524332303a206275726e2066726f6d20746865207a65726f2061646472657360008201527f7300000000000000000000000000000000000000000000000000000000000000602082015250565b7f45524332303a207472616e736665722066726f6d20746865207a65726f20616460008201527f6472657373000000000000000000000000000000000000000000000000000000602082015250565b7f45524332303a20617070726f76652066726f6d20746865207a65726f2061646460008201527f7265737300000000000000000000000000000000000000000000000000000000602082015250565b7f45524332303a2064656372656173656420616c6c6f77616e63652062656c6f7760008201527f207a65726f000000000000000000000000000000000000000000000000000000602082015250565b7f45524332303a206d696e7420746f20746865207a65726f206164647265737300600082015250565b61213d81611c77565b811461214857600080fd5b50565b61215481611cb5565b811461215f57600080fd5b5056fea264697066735822122042a91dc085f73bb6031b22f95770aa710e4f26dd545ce88ea29235d1cb34a00564736f6c63430008040033",
  "linkReferences": {},
  "deployedLinkReferences": {}
}